:020000040800F2
:10000000480800200101000891130008931300081C
:10001000971300089B1300089F13000800000000BE
:10002000000000000000000000000000A313000812
:10003000A513000800000000A7130008A91300087A
:100040001B0100081B0100081B0100081B01000820
:100050001B0100081B0100081B0100081B01000810
:100060001B0100081B0100081B0100081B01000800
:100070001B0100081B0100081B0100081B010008F0
:100080001B0100081B0100081B0100081B010008E0
:100090001B0100081B0100081B0100081B010008D0
:1000A0001B0100081B0100081B0100081B010008C0
:1000B0001B0100081B0100081B0100081B010008B0
:1000C0001B0100081B0100081B0100081B010008A0
:1000D0001B0100081B010008B11300081B010008E8
:1000E0001B0100081B0100081B010008DFF80CD0F1
:1000F00002F078FF004800475F130008480800201E
:100100000648804706480047FEE7FEE7FEE7FEE7B1
:10011000FEE7FEE7FEE7FEE7FEE7FEE70302000874
:10012000ED0000080CB50020019000906C480068BC
:1001300040F480306A49086000BF6948006800F4F4
:10014000003000900198401C0190009818B9019867
:10015000B0F5A06FF1D16248006800F4003010B132
:100160000120009001E0002000900098012843D178
:100170005C48006840F010005A4908600846006872
:1001800020F0030008600846006840F002000860A4
:1001900053484068524948600846406848600846ED
:1001A000406840F4806048600846406820F47C1055
:1001B00048600846406840F4E81048600846006817
:1001C00040F08070086000BF4548006800F0007093
:1001D0000028F9D04248406820F0030040494860B8
:1001E0000846406840F00200486000BF3C48406854
:1001F00000F00C000828F9D10CBD10B5FFF792FFF4
:1002000010BD10B53648006840F001003449086060
:10021000084640683449084031494860084600684B
:10022000324908402E4908600846006820F48020C2
:1002300008600846406820F4FE0048604FF41F0044
:100240008860FFF7DAFF4FF000602949086010BDB1
:1002500010B5002100200022214B5B6803F00C0147
:1002600021B1042906D0082928D107E0214B224CCE
:10027000236027E01F4B204C236023E0184B5B6872
:1002800003F47010164B5B6803F48032022303EB17
:10029000904022B9194B4343174C23600DE0104B9B
:1002A0005B6803F4003323B1144B4343124C2360C7
:1002B00003E0104B4343104C236003E00D4B0E4C06
:1002C000236000BF00BF064B5B68C3F303130C4CF5
:1002D000E15C094B1B68CB40074C236010BD00005C
:1002E00000100240002002400000FFF8FFFFF6FE71
:1002F00008ED00E000127A000000002000093D0037
:100300000400002031490143314A1160704770B543
:10031000002100230F22C47804B32D4C246804F478
:10032000E064C4F5E064210AC1F10403CA404478E2
:1003300004FA03F18478144021430901254C06781E
:10034000A155047804F01F050124AC4005786D1117
:10035000AD0005F1E025C5F8004109E0047804F09E
:100360001F050124AC401C4D0678761145F8264047
:1003700070BD1A4A0A400243154B1B1F1A60704792
:1003800039B1134A121D12680243114B1B1D1A602A
:1003900006E00F4A121D126882430D4B1B1D1A60A6
:1003A0007047042808D14FF0E021096941F00401A9
:1003B0004FF0E022116107E04FF0E021096921F0E0
:1003C00004014FF0E0221161704700000000FA05BF
:1003D0000CED00E000E400E080E100E080FFFF1FA2
:1003E00010B50446FA48844208D10121401500F0B6
:1003F00055FD0021601500F051FD17E0F5488442DD
:1004000008D10121001500F049FD0021201500F060
:1004100045FD0BE0F048844208D10121C80300F0FB
:100420003DFD00214FF4004000F038FD10BD30B517
:100430000246002000235068E84C20400D790C68EB
:1004400044EA0524204350609068E54C2040D1E9FF
:1004500002542C434D7944EA450420439060D06A0D
:1004600020F470000C7C641EE4B2234340EA035085
:10047000D06230BD00210160017141718160C160B5
:1004800001210174704721B1826842F0010282604B
:1004900003E0826822F001028260704721B1826825
:1004A00042F48072826003E0826822F4807282608B
:1004B000704710B50023CBB21AB144681C434460A6
:1004C00002E044689C43446010BD816841F008012B
:1004D00081607047014600208A6802F008020AB174
:1004E000012000E000207047816841F00401816034
:1004F0007047014600208A6802F004020AB1012018
:1005000000E00020704721B1826842F4A0028260BE
:1005100003E0826822F4A002826070470146002056
:100520008A6802F480020AB1012000E000207047CE
:1005300010B50A4600210023416821F46041531E92
:1005400041EA4331416010BD21B1426842F400628A
:10055000426003E0426822F4006242607047F0B5F6
:1005600004460D4600200021092D11DDE068A5F1AB
:100570000A0606EB4607072606FA07F18843A5F1A7
:100580000A0606EB460603FA06F10843E0600CE0B3
:10059000206905EB4507072606FA07F1884305EBB6
:1005A000450603FA06F108432061072A0FDA606B5B
:1005B000561E06EB86071F2606FA07F18843561ECD
:1005C00006EB860605FA06F10843606322E00D2A71
:1005D0000FDA206BD61F06EB86071F2606FA07F1F7
:1005E0008843D61F06EB860605FA06F1084320630A
:1005F00010E0E06AA2F10D0606EB86071F2606FA58
:1006000007F18843A2F10D0606EB860605FA06F10E
:100610000843E062F0BD21B1826842F4801282603A
:1006200003E0826822F48012826070470146C86C41
:1006300080B2704766484C300068704721B142680C
:1006400042F48062426003E0426822F480624260C9
:10065000704721B1426842F48052426003E0426830
:1006600022F48052426070470A460021816821F4DA
:10067000E04111438160704721B1826842F4004239
:10068000826003E0826822F400428260704721B1F8
:10069000826842F40212826003E0826822F402124D
:1006A00082607047014600208A6802F400120AB195
:1006B000012000E000207047F0B5044615460020F8
:1006C00000220026092911DDE068A1F10A0707EBE5
:1006D000470C072707FA0CF29043A1F10A0707EB32
:1006E000470703FA07F21043E0600CE0206901EBD2
:1006F000410C072707FA0CF2904301EB410703FA7C
:1007000007F210432061A06BC0F30156EF1C06F105
:10071000010CA7EB0C0707EB870C1F2707FA0CF25D
:100720009043EF1C06F1010CA7EB0C0707EB8707C2
:1007300001FA07F21043A063F0BD10B50A4600218C
:100740000023816B21F44011531E41EA0351816360
:1007500010BD08B5002300930090009B0B4400934C
:10076000009B1A6008BD08B5024600200090009268
:1007700001F12800009B184400900098006880B2A6
:1007800008BD0A4600214168164B194011434160DB
:1007900070474162826270470A460021416821F039
:1007A0001F0111434160704740B109490831096890
:1007B00041F40001064A0832116007E0044908319B
:1007C000096821F40001024A0832116070470000F4
:1007D0000024014000280140003C0140FFFEF0FFE2
:1007E000FDF7F1FFFFFD3FFF0246002013680B40BD
:1007F0000BB1012000E000207047CA43026070473F
:1008000070B502460020002300240B125568CEB2BA
:1008100005EA060415681D4015B10CB1012000E081
:10082000002070BD00220A12D3430360704700000D
:1008300010B50446CC48844208D10121042000F0C0
:100840002DFB0021042000F029FB46E0C74884422C
:1008500008D10121082000F021FB0021082000F030
:100860001DFB3AE0C248844208D10121102000F06B
:1008700015FB0021102000F011FB2EE0BD48844242
:1008800008D10121202000F009FB0021202000F0E8
:1008900005FB22E0B848844208D10121402000F045
:1008A000FDFA0021402000F0F9FA16E0B348844236
:1008B00008D10121802000F0F1FA0021802000F011
:1008C000EDFA0AE0AE48844207D10121801500F01C
:1008D000E5FA0021A01500F0E1FA10BD10B50121E4
:1008E000084600F0DBFA0021012000F0D7FA10BD25
:1008F0002DE9F041024600250026002000230024B7
:10090000002791F803C00CF00F0591F803C00CF01C
:10091000100CBCF1000F03D091F802C04CEA0505A1
:1009200091F800C0BCF1000F31D0146800202BE01A
:100930004FF0010C0CFA00F3B1F800C00CEA03060A
:100940009E4220D183004FF00F0C0CFA03F7BC43FA
:1009500005FA03FC4CEA040491F803C0BCF1280F2B
:1009600006D14FF0010C0CFA00FCC2F814C00AE0EA
:1009700091F803C0BCF1480F05D14FF0010C0CFAFF
:1009800000FCC2F810C0401C0828D1D31460B1F894
:1009900000C0BCF1FF0F34DD546800202EE000F1F0
:1009A000080C4FF0010808FA0CF3B1F800C00CEA8B
:1009B00003069E4221D183004FF00F0C0CFA03F77F
:1009C000BC4305FA03FC4CEA040491F803C0BCF1F3
:1009D000280F05D100F1080C08FA0CF8C2F81480B1
:1009E00091F803C0BCF1480F07D100F1080C4FF09B
:1009F000010808FA0CF8C2F81080401C0828CED371
:100A00005460BDE8F0814FF6FF71018002218170D2
:100A10000421C17070470246002093680B400BB15F
:100A2000012000E0002070470146886880B27047CE
:100A300002460020D3680B400BB1012000E00020EB
:100A400070470146C86880B27047016170474161D4
:100A500070470AB1016100E041617047C1607047B1
:100A60004FF480320A4382618161826182698269C6
:100A7000704702460020434B18684FF680731840B9
:100A800040EA021008433F4B186070473E49C86176
:100A90007047F0B50A46002300240021002500F02D
:100AA0000046B6F1004F02D1364EF16901E0354EF5
:100AB0007168C0F3034583B200F44016B6F5401FD9
:100AC00008D121F070612F4E766826F070662D4FA8
:100AD0007E6012E000F48016B6F5801F06D1032672
:100AE00006FA05F4A14341F0706106E0460D3601B7
:100AF00003FA06F6B14341F0706122B1460D3601AA
:100B000003FA06F6314300F00046B6F1004F02D179
:100B10001C4EF16101E01B4E7160F0BD30B500224A
:100B20008B071C0F0F2303FA04F2164B08338C10AB
:100B300053F824309343134C08348D1044F8253077
:100B400023468C1053F824308C07240F00FA04F449
:100B500023430C4C08348D1044F8253030BD0A492D
:100B6000DC3108607047000000080140000C0140C3
:100B7000001001400014014000180140001C014019
:100B8000002001400000014000002042DF480068D2
:100B900040F00100DD49086008464068DC49084033
:100BA000DA49486008460068DA490840D7490860D1
:100BB0000846006820F4802008600846406820F459
:100BC000FE0048604FF41F0088607047CF490968F5
:100BD00021F48031CD4A11601146096821F4802149
:100BE0001160B0F5803F03D0B0F5802F0ED106E044
:100BF000C649096841F48031C44A116007E0C3491D
:100C0000096841F4A021C14A116000E000BF00BFA3
:100C1000704710B501460022002300204A11012A26
:100C200002D1BA4C236806E0022A02D1B74C236AEB
:100C300001E0B64C636A01F01F02012494401C409D
:100C40000CB1012000E0002010BD38B5002000905C
:100C50000024002500BF3120FFF7DBFF0546009888
:100C6000401C00900098B0F5A06F01D0002DF2D08C
:100C70003120FFF7CEFF08B1012400E00024204618
:100C800038BD01460020A14A106820F0F80040EA73
:100C9000C10010607047A0490860704702460020FC
:100CA0009A4B586820F47C1042EA01031843974B92
:100CB0005860704798490866704701460020934A7B
:100CC000506820F003000843506070478F48406828
:100CD00000F00C007047014600208C4A506820F05C
:100CE000F00008435060704701460020874A506872
:100CF00020F4E06008435060704701460020834ABA
:100D0000506820F4605040EAC1005060704729B13B
:100D10007E4A527A02437D4B5A7204E07B4A527AF1
:100D200082437A4B5A7270477B49D83108607047CA
:100D300001460020754A506820F440400843506046
:100D400070470021714A20321170704A82F82010D9
:100D5000012802D004280AD104E001216B4A203284
:100D6000117005E00521694A2032117000E000BFD2
:100D700000BF70476949086070476449096A0143C8
:100D8000624A11627047654944390860704730B55E
:100D900000210022002400235C4D6D6805F00C0149
:100DA00021B1042905D0082923D105E05C4D056057
:100DB00022E05B4D05601FE0544D6D6805F4701234
:100DC000524D6D6805F48034022505EB92421CB942
:100DD000544D554305600BE04C4D6D6805F40035EE
:100DE0001DB1504D5543056002E04D4D5543056022
:100DF00002E04B4D056000BF00BF444D6D6805F03B
:100E0000F0010909484D6B5C0568DD4045603F4DC8
:100E10006D6805F4E061090A434D6B5C4568DD408F
:100E200085603A4D6D6805F46051C90A3E4D6B5CB2
:100E30004568DD40C560354D6D6805F44041890B5E
:100E40003A4D6B5CC568B5FBF3F5056130BD29B162
:100E50002E4A526902432D4B5A6104E02B4A5269D3
:100E600082432A4B5A61704729B1284A926902434A
:100E7000264B9A6104E0254A92698243234B9A618A
:100E8000704729B1214AD2690243204BDA6104E05C
:100E90001E4AD26982431D4BDA61704729B11B4A51
:100EA000D2680243194BDA6004E0184AD2688243E0
:100EB000164BDA60704729B1144A12690243134B8A
:100EC0001A6104E0114A12698243104B1A6170479B
:100ED00012494039086070470F49C86470470B4990
:100EE000C87170470948406A40F0807007494862FD
:100EF000704701460020054A92680A400AB1012065
:100F000000E00020704701498872704700100240DD
:100F10000000FFF8FFFFF6FE00004242800442425C
:100F200000127A0000093D00140000202400002077
:100F300010B50446FB48844209D101218803FFF71C
:100F4000ADFF00214FF48040FFF7A8FF32E0F648E4
:100F5000844209D101214804FFF7ADFF00214FF47D
:100F60000030FFF7A8FF25E0F048844209D10121B5
:100F70008804FFF7A0FF00214FF48020FFF79BFFBC
:100F800018E0EB48844209D10121C804FFF793FF20
:100F900000214FF40020FFF78EFF0BE0E54884426C
:100FA00008D101210805FFF786FF00214FF48010CA
:100FB000FFF781FF10BD2DE9F04786B005460E46CC
:100FC0000024A24600BFA1460027B08900B100BF9F
:100FD0002F462C8A4CF6FF700440F08804432C8284
:100FE000AC894EF6F3100440B0883189084371890A
:100FF00008430443AC81AC8A4FF6FF400440B089FB
:101000000443AC8201A8FFF7C2FEC648874202D162
:10101000DDF810A001E0DDF80CA0A88900F4004084
:1010200040B10AEBCA0000EB0A1031684900B0FB7E
:10103000F1F807E00AEBCA0000EB0A1031688900FA
:10104000B0FBF1F86420B8FBF0F004012009642142
:1010500001FB1089A88900F4004040B1322000EB68
:10106000C900B0FBF1F000F00700044308E03220B3
:1010700000EB09106421B0FBF1F000F00F00044315
:101080002C8106B0BDE8F0874FF4165101600021B5
:101090008180C18001810C214181002181817047C3
:1010A00010B502460020108A4FF2FF0318400B884B
:1010B0004C8823438C882343CC88234318431082D5
:1010C00010BD0021018041808180C180704721B125
:1010D000828942F40052828104E082894DF6FF73D6
:1010E0001A4082817047F0B503460024002600258F
:1010F000002040F66A17B94200D100BF1846C1F37C
:10110000421401F01F06012707FA06F5012C01D150
:101110000C3004E0022C01D1103000E014301AB180
:1011200007682F43076002E00768AF430760F0BD20
:101130001AB1838A0B43838202E0838A8B438382C2
:101140007047028A4FF6F0731A400282028A0A43FD
:101150000282704782894FF2FF731A40828182892E
:101160000A438281704721B1828942F00202828162
:1011700004E082894FF6FD731A4082817047028A2B
:101180004FF6DF731A400282028A0A4302827047D6
:1011900021B1028A42F48042028204E0028A4BF6C4
:1011A000FF731A4002827047C1F3080282807047C1
:1011B00001468888C0F308007047818941F0010129
:1011C00081817047028BD2B20283028B42EA0122F4
:1011D00002837047028B02F47F420283028B0A4330
:1011E0000283704721B1828A42F02002828204E0A9
:1011F000828A4FF6DF731A408282704721B1828A59
:1012000042F01002828204E0828A4FF6EF731A40A5
:101210008282704721B1828A42F00802828204E011
:10122000828A4FF6F7731A408282704721B1828911
:1012300042F40042828103E08289C2F30E0282817D
:10124000704721B1828A42F40062828204E0828A7D
:101250004FF2FF731A4082827047828A4FF6FB7307
:101260001A408282828A0A438282704721B1828A2E
:1012700042F00202828204E0828A4FF6FD731A4035
:101280008282704702460020B1F5007F00D100BF86
:1012900013880B400BB1012000E00020704701F4DF
:1012A0000072B2F5007F00D100BFCA4302807047D0
:1012B00070B50246002400230025002040F66A167F
:1012C000B14200D100BFC1F3421501F01F03012656
:1012D00006FA03F3012D02D19689334006E0022D70
:1012E00002D1168A334001E0968A33400C1201265F
:1012F00006FA04F41688344013B10CB1012000E062
:10130000002070BD10B50022002340F66A14A142EF
:1013100000D100BF0A1201249440A3B2DC43048030
:1013200010BD00000038014000440040004800406B
:10133000004C00400050004008B501210820FFF794
:1013400093FD0220ADF8000010208DF8030003206B
:101350008DF8020069460D48FFF7CAFA08BD10B5BE
:1013600000F076F800F084F900F05AFA00F005FF7A
:10137000FFF7E2FF01F014FA01F0A4FA01F0FAFA23
:1013800001F07CFB00F0F6FF002010BD000C0140D6
:10139000704700BFFEE700BFFEE700BFFEE700BFEB
:1013A000FEE770477047704710B500F0A8F910BD10
:1013B00010B540F225512048FFF77AFFD8B11E48FA
:1013C000FFF7F6FEC4B21D48B0F80004C0F30E00EB
:1013D00040F2FF3188420EDA1849B1F80014C1F327
:1013E0000E00411C154AB2F8002461F30E021349A5
:1013F000A1F800240C5440F224410F48FFF758FF95
:10140000012817D10D48B0F8000420F4004000F581
:1014100000400A49A1F800040748FFF7C9FEC4B21A
:1014200007A1064801F076FB08B1012000E000208A
:101430000649087010BD0000004400404000002034
:10144000434C4F5345440D0A000000002C0000207F
:1014500000B585B001218803FFF706FD01210420B6
:10146000FFF702FD0420ADF8100018208DF81300DE
:1014700003208DF8120004A97B48FFF739FA0820F1
:10148000ADF8100004208DF8130004A97648FFF78A
:101490002FFA4FF4E13000900020ADF80400ADF8D1
:1014A0000600ADF80800ADF80C000C20ADF80A00FD
:1014B00069466E48FFF77FFD01216C48FFF707FE84
:1014C00005B000BD70B504460D46E1B26748FFF7B0
:1014D0006BFE00BF80216548FFF7D4FE0028F9D0DD
:1014E000204670BD10B5044600BF20215F48FFF7BD
:1014F000C9FE0028F9D05D48FFF75AFE10BDF0B5CF
:1015000003460D461646002729460A2E03D0002022
:1015100008702846F0BD33B9302001F8010B0020D7
:1015200008702846F6E7002B03DA2D2001F8010B9E
:101530005B4242F210720DE093FBF2F404B937B152
:1015400004F1300001F8010B04FB123301270A20DB
:1015500092FBF0F2002AEFDC002008702846D9E761
:101560000FB470B586B006460CA8019073E00B98D6
:1015700000785C281CD10B98401C0B9000786E28DA
:1015800009D072280FD10D213046FFF70DFE0B98C0
:10159000401C0B900BE00A213046FFF705FE0B982C
:1015A000401C0B9003E00B98401C0B9000BF4BE0DD
:1015B0000B980078252840D10B98401C0B900078A0
:1015C000642818D0732833D1019810C801900BE01B
:1015D00021783046FFF7E8FD00BF40213046FFF795
:1015E00051FE0028F9D0641C20780028F0D10B9817
:1015F000401C0B9020E0019820C801900A2202A90B
:101600002846FFF77CFF02AC0BE021783046FFF75D
:10161000CBFD00BF40213046FFF734FE0028F9D053
:10162000641C20780028F0D10B98401C0B9003E03C
:101630000B98401C0B9000BF06E00B9810F8011BA4
:101640000B903046FFF7B0FD00BF40213046FFF75A
:1016500019FE0028F9D00B980078002887D106B031
:1016600070BC5DF814FB0000000801400038014028
:1016700030B527480068274AB0FBF2F1B1F1807F0E
:1016800001D301201DE021F07F40401E4FF0E022F9
:10169000506150170F22002807DA13071D0E1E4B4A
:1016A00000F00F04241F1D5503E013071C0E1B4BF5
:1016B0001C5400BF00204FF0E02290610720106111
:1016C000002008B100BFFEE74FF0E020006920F0E5
:1016D00001004FF0E021086130BD01B510490098CC
:1016E00008604FF0E020006940F001004FF0E02179
:1016F000086100BF0A4800680028FBD108BD0848FF
:10170000006820B106480068401E0549086070471F
:101710000000002040420F0018ED00E000E400E06F
:101720002800002008B54FF4A060FEF7EBFD26204E
:101730008DF8000000208DF801008DF802000120D6
:101740008DF803006846FEF7E2FD08BD00B585B0E0
:1017500001214804FFF795FB01210420FFF784FBDA
:101760004FF40070ADF8100018208DF8130003201E
:101770008DF8120004A9F748FFF7BAF84FF480601B
:10178000ADF8100004208DF8130004A9F148FFF70C
:10179000AFF84FF4E13000900020ADF80400ADF850
:1017A0000600ADF80800ADF80C000C20ADF80A00FA
:1017B0006946E948FFF7FFFB012240F22551E64860
:1017C000FFF791FC012240F22441E348FFF78BFC34
:1017D000FFF7A8FF0121E048FFF779FC05B000BD45
:1017E00008B501210820FFF73FFB4FF48070ADF8EA
:1017F000000010208DF8030003208DF802006946D8
:10180000D648FFF775F801210820FFF72DFB4FF4AC
:101810000070ADF800006946D048FFF769F808BDD0
:1018200010B5FFF7DDFFFFF791FF4FF40071CB48D4
:10183000FFF70BF94FF48071C848FFF708F910BDA6
:1018400010B54FF40071C548FFF701F9C448FFF720
:1018500044FF4FF40071C148FFF7F7F810BD2DE9C0
:10186000F04106460C4615461F46BE48B0F8000437
:101870006FF30E00BB49A1F800043246BAA1B64886
:1018800000F0E5FB1CB915B90120BDE8F0814FF46B
:101890007A7107FB01F0FFF720FF0020B149B1F892
:1018A0000014C1F30E01AF4A50541146B0A001F02C
:1018B00039FCE4B1DDB1AB4B2A462146ADA001F0C5
:1018C00031FC2146A74801F025F908B1012000E0CC
:1018D000002040B92946A34801F01CF908B10120B5
:1018E00000E0002008B10120CFE70020CDE744B19F
:1018F00021469C4801F00EF908B10120C5E70020FF
:10190000C3E72946974801F005F908B10120BCE773
:101910000020BAE710B500244FF400718F48FFF79C
:1019200094F89848FFF7D9FE0CE04FF4FA730022C0
:1019300095A196A0FFF793FF00B110BDFFF780FFC0
:10194000601CC4B20A2CF0DB00BFF6E710B50446F9
:1019500024B1012C0AD0022C18D10FE040F6C41398
:101960008BA289A18DA0FFF77AFF10BD40F6C413AA
:1019700087A285A18CA0FFF772FFF6E740F6C4139B
:1019800083A281A18BA0FFF76AFFEEE70020ECE7BE
:1019900030B59FB004460D4689A001F0C3FB2B462D
:1019A00022468EA101A801F0CDFB91A001F0BAFB67
:1019B00041F28833002274A101A8FFF750FF1FB045
:1019C00030BD70B5A0B004460D4616462B462246E3
:1019D0008DA102A8009601F0B5FB4FF47A730022A6
:1019E00069A102A8FFF73BFF20B070BD10B586B01B
:1019F00004460CB1012000E00020024688A101A8A5
:101A000001F0A0FB4FF4FA7300225FA101A8FFF7D9
:101A100026FF06B010BD2DE9F041B8B006460F46CE
:101A200014461D4664211FA801F069F816B1012E65
:101A300016D10AE03B467EA27EA11FA8009401F0C9
:101A400081FB80A001F06EFB0EE03B4681A279A1F4
:101A50001FA8009401F076FB7FA001F063FB03E078
:101A600080A001F05FFB00BF00BF052D09DA1FABAE
:101A70002A467FA101A801F065FB82A001F052FB7C
:101A800007E01FAA84A101A801F05CFB86A001F079
:101A900049FB4FF47A6389A23BA101A8FFF7DFFE5F
:101AA0008046414689A001F03DFB01A930A001F02C
:101AB00039FB4FF47A6381A233A101A8FFF7CFFE6F
:101AC00038B0BDE8F08170B5BCB004460D4616468E
:101AD000FCB12B4601227EA11EA801F033FB324649
:101AE00080A1684601F02EFB4FF4FA73002226A174
:101AF0001EA8FFF7B4FE50B14FF4FA73002222A1E2
:101B00006846FFF7ACFE10B101203CB070BD00206C
:101B1000FBE72B4600226EA11EA801F013FB4FF439
:101B2000FA73002218A11EA8FFF799FEEDE710B581
:101B30004FF4FA73002214A16EA0FFF790FE30B1AB
:101B400070A1084800F0E6FF10B1022010BDEDE0E2
:101B5000DEE000000008014000440040000C0140AD
:101B600020A107004000002025730D0A000000009E
:101B700025730000257325733D3D3D3D25730D0AFA
:101B80000000000040420F004F4B00004154000095
:101B90006E6F206368616E676500000041542B43DF
:101BA000574D4F44453D310041542B43574D4F4411
:101BB000453D320041542B43574D4F44453D330082
:101BC0000D0A455350383236365F4A6F696E4150C0
:101BD0005F73746172740D0A0000000041542B435E
:101BE000574A41503D222573222C222573220000A2
:101BF0000D0A455350383236365F4A6F696E415090
:101C00005F6F6B0D0A00000041542B435753415046
:101C10003D222573222C222573222C312C25640091
:101C200041542B4349504D55583D25640000000058
:101C300054435000222573222C222573222C257315
:101C4000000000000D0A656E756D5443505F6F6BA8
:101C50000D0A0000554450000D0A5544505F6F6B4B
:101C60000D0A00000D0A627265616B0D0A0000002A
:101C700041542B43495053544152543D25642C2523
:101C8000730000000D0A41542B43495053544152F4
:101C900054310D0A0000000041542B434950535465
:101CA0004152543D257300000D0A41542B434950C5
:101CB0005354415254320D0A00000000414C524529
:101CC000415920434F4E4E454354000025640A00BD
:101CD00041542B4349505345525645523D25642C9F
:101CE0002573000041542B43495053544F3D2573F5
:101CF0000000000041542B43495053544154555364
:101D0000000000005354415455533A320D0A00006C
:101D10007CA17F4800F0FEFE08B1032010BD7DA12C
:101D20007B4800F0F7FE08B10420F7E70020F5E754
:101D300010B500244FF4FA730022AFF2B411AFF2E1
:101D40004C00FFF78CFD002831D075A1704800F0E1
:101D5000E1FE10B144F0010401E024F0010474A19B
:101D60006B4800F0D7FE10B144F0020401E024F00B
:101D7000020473A1664800F0CDFE10B144F00404E3
:101D800001E024F0040472A1614800F0C3FE10B128
:101D900044F0080401E024F0080471A15C4800F05C
:101DA000B9FE10B144F0100401E024F01004204604
:101DB00010BD2DE9F04105460F464FF4FA7300229D
:101DC000AFF23C216AA0FFF74AFD6CA1504800F039
:101DD000A1FE06460EB1B61D02E00020BDE8F0816E
:101DE000002409E0305D2855285D222802D100201A
:101DF000285503E0601CC4B2BC42F3DB00BF0120E5
:101E0000ECE710B54FF4FA730022AFF284215DA025
:101E1000FFF725FD08B9002010BD4FF4FA735DA24D
:101E2000AFF29C215CA0FFF71AFDF5E710B55D4805
:101E3000FFF753FC5CA15D4800F009F95C48FFF72F
:101E40004CFC10BD2DE9F04186B007460C46154606
:101E50001E464FF0000847B12246AFF2EC2153482E
:101E600000F0F5F84FF001081CE0052E06DAAB1C77
:101E7000324650A101A801F065F904E0AA1C52A164
:101E800001A801F05FF94FF47A73002252A101A872
:101E9000FFF7E5FC4FF47A73002250A12046FFF7CC
:101EA000DEFC8046404606B0BDE8F08170B50546D0
:101EB0001748B0F800046FF30E001549A1F80004AC
:101EC0000846B0F8000420F40040A1F8000400BF68
:101ED0000F48B0F80004C00B0028F9D000200C49CE
:101EE000B1F80014C1F30E01094A50540DB1144663
:101EF00005E03CA1064800F00DFE00B1044C204670
:101F000070BD00005354415455533A330D0A00003C
:101F1000400000205354415455533A340D0A0000F8
:101F20002B4349505354415455533A302C00000030
:101F30002B4349505354415455533A312C0000001F
:101F40002B4349505354415455533A322C0000000E
:101F50002B4349505354415455533A332C000000FD
:101F60002B4349505354415455533A342C000000EC
:101F700041542B4349465352000000004150495000
:101F80002C22000041542B4349504D4F44453D31D4
:101F9000000000003E00000041542B4349505345CF
:101FA0004E44000040420F002B2B2B000044004009
:101FB00020A1070041542B43495053454E443D2531
:101FC000642C25640000000041542B4349505345C4
:101FD0004E443D25640000003E20000053454E4421
:101FE000204F4B002B49504400000000F0B5034641
:101FF0000D461646002729460A2E03D000200870F9
:102000002846F0BD33B9302001F8010B00200870DC
:102010002846F6E7002B03DA2D2001F8010B5B427E
:1020200042F210720DE093FBF2F404B937B104F1FF
:10203000300001F8010B04FB123301270A2092FB48
:10204000F0F2002AEFDC002008702846D9E70FB430
:1020500070B586B006460CA8019073E00B98007826
:102060005C281CD10B98401C0B9000786E2809D07E
:1020700072280FD10D213046FFF796F80B98401CBF
:102080000B900BE00A213046FFF78EF80B98401CAE
:102090000B9003E00B98401C0B9000BF4BE00B989B
:1020A0000078252840D10B98401C0B9000786428BC
:1020B00018D0732833D1019810C801900BE0217813
:1020C0003046FFF771F800BF80213046FFF7DAF89D
:1020D0000028F9D0641C20780028F0D10B98401C0F
:1020E0000B9020E0019820C801900A2202A92846FE
:1020F000FFF77CFF02AC0BE021783046FFF754F885
:1021000000BF80213046FFF7BDF80028F9D0641CDD
:1021100020780028F0D10B98401C0B9003E00B981E
:10212000401C0B9000BF06E00B9810F8011B0B90B1
:102130003046FFF739F800BF80213046FFF7A2F89C
:102140000028F9D00B980078002887D106B070BC21
:102150005DF814FB08B501210820FEF785FE8020FC
:10216000ADF8000010208DF8030003208DF8020068
:1021700069465148FEF7BCFB08BD10B5FFF7EAFF02
:1021800080214D48FEF761FC10BD08B58020ADF8F8
:10219000000048208DF8030069464748FEF7A8FB79
:1021A00008BD08B58020ADF8000010208DF80300B0
:1021B00003208DF8020069463F48FEF799FB08BDF1
:1021C00070B50025002424E000BF80213A48FEF7C6
:1021D00022FC0028F9D02820FFF77FFA802136481A
:1021E000FEF719FC01280DD100BF80213248FEF70F
:1021F00012FC0128F9D0C4F1070101208840C0B2C7
:10220000054304E0C4F10701012088408543601CB8
:10221000C4B2082CD8DB284670BD10B50446FFF7C1
:10222000C0FF80212448FEF712FC44F62060FFF72F
:1022300054FA80212048FEF708FC1420FFF74DFADD
:10224000FFF7A3FF80211C48FEF7E5FB80BB00BF22
:1022500080211948FEF7DFFB0028F9D000BF80215C
:102260001548FEF7D8FB0128F9D0FFF7A9FF207029
:10227000FFF7A6FF6070FFF7A3FFA070FFF7A0FFB6
:10228000E070FFF79DFF2071FFF78BFF80210A4868
:10229000FEF7DBFB207861780844A1780844E178F8
:1022A00008442179884201D1012010BD0020FCE7BB
:1022B000FFE70020F9E70000000C014010B5C8A0BE
:1022C00000F030FF4FF48071CC48FEF7BEFBFFF703
:1022D00021FBCBA000F026FF0220FFF737FBFFF722
:1022E000AFFACAA000F01EFF00BFCBA1CDA0FFF740
:1022F0004FFB0028F9D0CCA000F014FF0120FFF71D
:1023000075FBCCA000F00EFF00BFCDA2CEA1012036
:10231000FFF7D9FB0028F8D0CDA000F003FFD0A034
:1023200000F000FF10BD10B54FF48071B348FEF708
:102330008CFBFFF7EFFA0020FFF708FB00BFB6A108
:10234000B8A0FFF725FB0028F9D00120FFF74EFBCE
:102350000523C9A2CAA10020FFF75DFB00BFFFF75C
:1023600050FD0028FBD0CAA000F0DCFEBCA000F0AD
:10237000D9FE10BD9CB0642101A800F0C0FBFFF79E
:102380009DFF2CE1C5A000F0CDFE0020FFF78EFDE3
:102390000446C6A100F0BEFBC649086008460168B5
:1023A000C5A000F0BFFEC348006840793038C64978
:1023B000087098A1BF48006800F0ACFB00282ED040
:1023C0001AA8FFF72AFF012820D19DF869309DF84F
:1023D0006820BEA101A800F0B5FEBEA000F0A2FEDC
:1023E00001A800F0A9FB0446B7480378224601A9DA
:1023F0000020FFF727FD9DF869209DF86810B8A020
:1024000000F090FEBAA000F08DFEE7E01AA8FFF7FA
:1024100004FF18B9BAA000F085FEDFE0DFE0BBA141
:10242000A448006800F076FB00282BD01AA8FFF71C
:10243000F4FE01281DD19DF86B309DF86A20A3A100
:1024400001A800F07FFE01A800F076FB04469E483C
:102450000378224601A90020FFF7F4FC9DF86B20C9
:102460009DF86A10AAA000F05DFEADA000F05AFE33
:10247000B4E01AA8FFF7D1FE18B9A1A000F052FEEF
:10248000ACE0ACE0AAA18B48006800F043FB002858
:1024900035D0A8A000F046FE00F0ECF9A8A000F0AE
:1024A00041FE00F0E7F9064600F052FB04462246E2
:1024B0000B46A6A000F036FE00F0DCF9064600F060
:1024C00047FB044622460B46A1A101A800F03AFEB4
:1024D00001A800F031FB04467B480378224601A99D
:1024E0000020FFF7AFFC00F0C5F9064600F030FB16
:1024F000044622460B4697A000F014FE6EE099A118
:102500006C48006800F006FBA0B100221146FF20D5
:1025100000F0D4FA94A101A800F014FE01A800F084
:102520000BFB044668480378224601A90020FFF708
:1025300089FC53E08FA15F48006800F0EBFAA0B17E
:1025400000221146104600F0B9FA8BA101A800F054
:10255000F9FD01A800F0F0FA04465B480378224632
:1025600001A90020FFF76EFC38E02AA1514800685D
:1025700000F0D0FA80BB65A14E48006800F0CAFAAE
:1025800050BB6BA14B48006800F0C4FA20BB75A19A
:102590004848006800F0BEFAF0B976A145480068E6
:1025A00000F0B8FAC0B977A101A800F0CBFD01A8EE
:1025B00000F0C2FA04460020434908700346224650
:1025C00001A9FFF73FFC71A000F0ACFD3E48017887
:1025D00071A000F0A7FD02E0FFE700E000BFD1E638
:1025E0000D0AD5FDD4DAC5E4D6C3204553503832A0
:1025F0003636202E2E2E2E2E2E0D0A00000C0140D7
:10260000B7A2CBCDB2E2CAD441540000C9E8D6C3C8
:10261000CEAA5354410000007261737062657272F9
:102620007900000050490000BCD3C8EB77696669A7
:1026300000000000C9E8D6C3B6E0C1ACBDD30000BD
:1026400031383030000000003830393000000000F0
:10265000BDA8C1A2544350B7FECEF1B6CB000000D6
:102660000D0AC5E4D6C3204553503832363620CD46
:10267000EAB1CF0D0A000000383039310000000007
:102680003139322E3136382E3139312E31000000B9
:10269000CDB8B4ABB7A2CBCD000000000D0ABDD3BE
:1026A000CADCCAFDBEDD0D0A000000002B49504403
:1026B0002C00000030000020CAD5B5BDCAFDBEDD2B
:1026C00025730D0A000000002D00002025642E2532
:1026D00064000000BFAACABCB7A2CBCD00000000B6
:1026E0000D0ACAAAB6C8CEAA25642E25640D0A0012
:1026F000CAAAB6C8B7A2CBCDCDEAB3C900000000C4
:10270000B6C1C8A1CAA7B0DC0000000042000000AA
:102710000D0ACEC2B6C8CEAA25642E25640D0A00C5
:10272000CEC2B6C8B7A2CBCDCDEAB3C90000000077
:10273000504D0000BFAACABCB2C9BCAF0000000027
:10274000B2C9BCAFBDE1CAF80000000025660A00AE
:10275000256600000D0A504D322E353D25660D0AC6
:1027600000000000323000006F70656E206C656400
:102770000000000033300000636C6F7365206C65EF
:10278000640000006572726F72000000D6B8C1EE7E
:10279000B3F6B4ED00000000554349443D25640004
:1027A00000B587B001214FF40170FEF75DFB4FF4D7
:1027B0000040FEF7BDFA0120ADF8040000208DF8BE
:1027C000070001A93B48FEF793F83B48FDF708FED8
:1027D000002002908DF80C008DF80D004FF4602061
:1027E00004900020059001208DF8180002A93248BD
:1027F000FDF71DFE01213048FDF745FE2E48FDF78F
:1028000064FE00BF2C48FDF765FE0028FAD12A4877
:10281000FDF76AFE00BF2848FDF76BFE0028FAD1DD
:102820000220ADF8000010208DF8030003208DF881
:10283000020069462148FEF75BF802211F48FEF7B7
:1028400004F907B000BD10B5044607230122214654
:102850001948FDF784FE01211748FDF754FE00BF1B
:1028600002211548FDF7C0FF0028F9D01248FDF7F6
:10287000DDFE10BD10B502211048FEF7E8F84FF458
:102880008C70FEF72AFF0020FFF7DDFF28300C498F
:1028900008802820FEF721FF02210848FEF7D5F81E
:1028A00042F2D050FEF719FF0548008800F04BF9BE
:1028B00010BD00000008014000240140000C014050
:1028C0003400002008B501210420FEF7CDFA2820AD
:1028D0008DF8030002208DF802008002ADF80000A0
:1028E00069461848FEF704F808BD10B54FF40061BA
:1028F0001448FEF790F8012801D11349086010BD73
:102900001FB5002000900190029003900E480068CF
:10291000012810D10DA1684600F014FC684600F0B3
:102920000BF904460523224669460120FFF78AFA7F
:102930000AA000F0F7FB0448006810B90AA000F0F4
:10294000F1FB1FBD000C014038000020426F64798C
:10295000496E64756374696F6E000000D3D0C8CB94
:10296000BDF8C8EB00000000C3BBD3D0C8CBBDF896
:10297000C8EB000008B501210420FEF775FA03201A
:102980008DF8020010208DF8030003208DF802005E
:102990000120ADF8000069465348FDF7A9FF08BDC6
:1029A00008B500210091009102E00099491C0091B6
:1029B00000998142F9D308BD10B54FF480714B489E
:1029C000FEF745F82820FFF7EBFF4FF480714748EA
:1029D000FEF73BF82820FFF7E3FF10BD10B54FF4DA
:1029E00000714248FEF733F8002403E0FFF7E4FFEC
:1029F000601CC4B2202CF9DB10BD01460020CA4384
:102A0000C2F38110704770B50446002512E004F04F
:102A1000004028B14FF400713448FEF716F804E086
:102A20004FF400713148FEF712F86400FFF7C4FF5D
:102A3000681CC5B2202DEADB70BD2DE9F0410746C8
:102A40000D461646002444F040443046FFF7D5FFBB
:102A500044EA00742846FFF7D0FF44EA8064384611
:102A6000FFF7CBFF44EA006444EA064444EA052445
:102A70003C432046FFF7C7FFBDE8F08108B50121C0
:102A80000820FEF7F1F910208DF803004FF4407094
:102A9000ADF8000003208DF8020069461348FDF7E9
:102AA00027FFFFF79BFF002211461046FFF7C5FFE7
:102AB000002211461046FFF7C0FF08BD70B504465E
:102AC0000D46164601210848FDF7BFFFFFF786FFB8
:102AD000324629462046FFF7B0FF324629462046B7
:102AE000FFF7ABFF70BD000000080140000C014083
:102AF000D2B201E000F8012B491EFBD27047002240
:102B0000F6E710B513460A4604461946FFF7F0FFEC
:102B1000204610BD30B505462A460B4612F8010B7B
:102B200013F8014B08B1A042F8D01CB1002802D024
:102B30006D1CF1E7284630BD421C10F8011B00292E
:102B4000FBD1801A704796230022114600F063B82B
:102B500000F0004230F000400AD0C10D01F5607174
:102B6000C0F3160042EA0151C20840071143704702
:102B700000200146704730B50B4601460020202258
:102B8000012409E021FA02F59D4205D303FA02F57A
:102B9000491B04FA02F52844151EA2F10102F1DCDA
:102BA00030BD2DE9F05F0546002092469B468846E1
:102BB0000646814640241BE02846414647462246B9
:102BC00000F031FA53465A46C01A914110D31146CB
:102BD0001846224600F018FA2D1A67EB01084F46F6
:102BE00022460120002100F00FFA17EB00094E41A8
:102BF000201EA4F10104DFDC484631462A46434644
:102C0000BDE8F09F0029A8BF7047401C490008BFDD
:102C100020F00100704710B4B0FA80FC00FA0CF00C
:102C200050EA010404BF10BC704749B1CCF1200444
:102C300021FA04F411FA0CF118BF012121430843D1
:102C4000A3EB0C01CB1D4FEA00614FEA102042BFFD
:102C5000002010BC704700EBC35010440029A4BFF3
:102C600010BC7047401C490008BF20F0010010BC98
:102C700070472DE9FE4F804681EA0300C00F0C46E5
:102C8000009021F0004123F00045B8EB0200A9417B
:102C900005D24046214690461C460B46024623F08C
:102CA0000040104347D0270DC7F30A00C3F30A5171
:102CB0000290401A019040286BDAC3F3130040F4ED
:102CC000801B0098924620B10023D2EB030A63EBED
:102CD0000B0B01985946C0F14002504600F094F9A0
:102CE00006460D4650465946019A00F0ACF910EBE5
:102CF00008006141002487EA115284EAE7731A430D
:102D000040D0009A62B3019A012A4FEA075215DCBB
:102D1000001B61EB02014FF0004202EA0752CDE9CD
:102D20000042001C41F5801132462B4600F0ACF900
:102D300003B0BDE8F08F40462146F9E7001B61EB88
:102D40000201001C41F5801300185B412018A2F518
:102D5000001747EB030140EAD570B6196D4111E049
:102D60006D084FEA360645EAC0754FEA0752001B68
:102D700061EB0201001C41F5801149084FEA300067
:102D80000019514132462B4603B0BDE8F04F00F028
:102D90006CB90098012240000023D0EB020263EBE3
:102DA000E073009821464FEAE074B8EB000061EB55
:102DB0000401E9E783F000435BE781F0004158E755
:102DC0002DE9FE4F81EA030404F0004421F00041A4
:102DD00000944FF0000B23F0004350EA01045ED052
:102DE00052EA03045BD0C3F30A54C1F30A552C44DE
:102DF000A4F2F3340194A0FB0254C1F3130141F493
:102E00008011C3F3130343F4801301FB024400FB5E
:102E1000034E840A970A44EA815447EA8357A4FB85
:102E2000076802958D0A05FB07854FEA932C04FB82
:102E30000C542705029D4FEA065847EA1637B5EBB2
:102E400008056EEB070C870E920E47EA811742EADF
:102E50008312A7FB0201B6EB0B0164EB00042B0D00
:102E600043EA0C335E1844EB1C50DA465146E7FB4C
:102E70000201C5F313044FEA0B3343EA14534FEA3C
:102E80000432019C43EA0603A4F10C040294009C62
:102E9000CDE900B400F0F8F803B0BDE8F08F0020F1
:102EA0000146F9E72DE9F04D81EA030404F0004BF7
:102EB00021F0004514464FF0000A23F0004150EA8B
:102EC000050220D054EA01021DD0C5F30A5702467C
:102ED000C5F31303C1F31300C1F30A5640F4801580
:102EE00043F48013A7EB0608101BD64608F2FD3802
:102EF00073EB050002D308F1010801E092185B4171
:102F0000B8F1000F03DA00200146BDE8F08D002083
:102F10004FF48011064684460EE0171B73EB05073D
:102F200005D3121B63EB050306434CEA010C490869
:102F30004FEA300092185B4150EA0107EDD152EAA6
:102F4000030012D082EA040083EA0501084305D099
:102F5000101BAB4106D20122002306E000224FF0F5
:102F6000004302E06FF0010253101AEB06004CEB35
:102F7000085110EB0A0041EB0B01BDE8F04D00F0E9
:102F800074B8C1F30A52C1F3130140F2FF3341F4A4
:102F900080119A4202DA00200146704740F2334322
:102FA0009A42A2F2334202DC524200F03CB800F0F6
:102FB0002BB8000030B5041E71F1000404DB4FF0A3
:102FC0000044404264EB0101141E73F1000405DB70
:102FD0001C464FF00043524263EB0403994208BF82
:102FE000904230BD064C074D06E0E06840F001031A
:102FF00094E8070098471034AC42F6D3FDF77AF80E
:10300000283A0008483A0008202A04DB203A00FA4F
:1030100002F1002070479140C2F1200320FA03F32F
:10302000194390407047202A04DB203A21FA02F02D
:103030000021704721FA02F3D040C2F120029140F2
:10304000084319467047202A06DBCB17203A41FA7D
:1030500002F043EAE07306E041FA02F3D040C2F125
:103060002002914008431946704710B5141E73F1B1
:10307000000408DA401C41F1000192185B411A4338
:1030800001D120F0010010BD2DE9F04D92469B4684
:1030900011B1B1FA81F202E0B0FA80F2203290462A
:1030A000FFF7B2FF04460F4640EA0A0041EA0B016F
:1030B00053465A46084313D0114653EA010019D02B
:1030C000C8F140025046FFF7AEFF05460E46504697
:1030D00059464246FFF798FF084305D0012004E017
:1030E00020463946BDE8F08D0020054346EAE076EB
:1030F0002C4337430A986305E40AA0EB080000223A
:10310000FD0A44EA47540A3002D500200146E9E7A7
:10311000010510196941DDE9084500196941BDE85B
:10312000F04DA2E70FB4054B10B503A9044A02986D
:1031300000F0DEF810BC5DF814FB0000C5140008B8
:103140003C0000200FB4084B10B504A902AA039854
:1031500000F0CEF8044602A9002000F060FC2046F2
:1031600010BC5DF814FB00001F3A000802E008C81C
:10317000121F08C1002AFAD170477047002001E0F1
:1031800001C1121F002AFBD1704700002DE9FF5F2B
:10319000DDE90220010DDDF838B0024318D044F615
:1031A0001050A1F2FF3141430D140F98012820D097
:1031B000A5EB0B00401C5FEA000A4FF00004474EED
:1031C000DFF81C91A046504616D5CAF1000728E04A
:1031D0000F98012443A2012808D0002100980F9BDA
:1031E000C0E90021C0E90243BDE8FF9F6FEA0B017F
:1031F000F4E7CBF10000DEE7074612E0F80707D05E
:103200002246334640464946FFF7DAFD8046894666
:103210002246334610461946FFF7D2FD04460E46B5
:103220007F10002FEAD1DDE90201BAF1000F42461A
:103230004B4602DAFFF7C4FD01E0FFF733FE044618
:103240000E460022284BFFF7B5FE03D84FF0FF30A3
:10325000014607E00022254B20463146FFF709FDD5
:10326000FFF78FFE102409E0002C0ADB0A2200235E
:10327000FFF797FC019B30321A55641E50EA010299
:10328000F2D1641C019AC4F1110314440F9A012A6B
:1032900003D0012208430DD10AE0084304D00020E6
:1032A0004FF0110B0F9080E7A3EB0B056D1E0DE0A7
:1032B0005B4504DD4FF0000205F1010504E003DA8F
:1032C0004FF00002A5F10105002AECD000980F99FB
:1032D000C0E90231C0E9004586E700000000244053
:1032E0000000F03F300000000000F0430000E03F2D
:1032F0002DE9FF4F95B09B468946064600250FE213
:10330000252877D100242746F84A0121059400E0BA
:10331000044316F8013F203B01FA03F01042F7D1B5
:1033200030782A2811D06FF02F033078A0F13002C6
:10333000092A16D8059A44F0020402EB820203EB34
:1033400042021044761C0590EFE759F8042B0592D1
:10335000002A03DA504244F40054059044F0020479
:10336000761C30782E2816D116F8010F44F004048C
:103370002A280DD06FF02F023078A0F13003092BEE
:1033800009D807EB870302EB4303C718761CF3E762
:1033900059F8047B761C30786C280FD006DC4C285A
:1033A00017D068280DD06A2814D104E0742810D0F2
:1033B0007A280FD10DE044F400140AE044F480149C
:1033C00001E044F440147278824202D104F5801482
:1033D000761C761C307866280BD013DC582877D002
:1033E00009DC002875D04528F6D04628F4D04728B7
:1033F0001AD19DE118E0632835D0642879D065287A
:1034000012D195E1702873D008DC6728F1D06928C3
:103410006FD06E280DD06F2806D1B5E073282CD060
:10342000752875D0782874D05A46179990476D1C26
:1034300075E1C4F30250022809D003280DD0D9F851
:10344000001004280DD00D6009F1040967E1D9F8D6
:103450000010EA17C1E90052F6E7D9F800100D8014
:10346000F2E70D70F0E719F8041B8DF8001000204A
:103470008DF80100EA46012003E059F804AB4FF053
:10348000FF3061074FF0000102D40DE008F10101A7
:103490008846B9420FDA8045F8DB1AF8081000298F
:1034A000F4D108E008F1010188468142FADB1AF8FC
:1034B00008100029F6D105985B46A0EB08072146C5
:1034C0003846179A00F094FA284400EB080507E004
:1034D0004DE029E10DE01AF8010B5A461799904783
:1034E000B8F10108F7D25B4621463846179A13E136
:1034F00042E00A220092C4F302524FF0000A022A6C
:1035000008D059F804CB032A4FEAEC710AD00DE039
:1035100029E02AE009F1070121F00702F2E802C1DF
:10352000914609E00FFA8CFC4FEAEC71042A03D1B2
:103530004FFA8CFC4FEAEC71002907DA0A460021A9
:10354000DCF1000C61EB02012D2202E0220504D522
:103550002B228DF80420012203E0E20701D0202273
:10356000F7E7904659E00A2102E010220DE0102111
:103570004FF0000A00910BE010224FF0000A44F0D7
:1035800004040827009203E008224FF0000A00928A
:10359000C4F30252022A05D059F804CB0021032AB1
:1035A00008D009E009F1070121F00702F2E802C1A1
:1035B000914605E01FFA8CFC042A01D10CF0FF0CA7
:1035C0004FF00008220728D5702806D0009B83F012
:1035D000100353EA0A0305D00EE040228DF80420C0
:1035E000012208E05CEA010206D030228DF80420B6
:1035F0008DF8050002229046009B83F0080353EAF1
:103600000A030AD15CEA010201D1620705D5302222
:103610008DF804204FF001087F1E582804D034A0F4
:1036200003900EA802900DE036A0F9E753466046DD
:10363000009AFFF7B6FA84460398825C0298401E0F
:10364000029002705CEA0100F0D1029806A9081A03
:1036500000F1200A600702D524F4803400E001273D
:10366000574502DDA7EB0A0000E0002000EB0A014D
:10367000009005984144401A0590E00306D45B464B
:103680002146179A059800F0B3F90544002706E093
:1036900001A85A46C05D179990476D1C7F1C47458D
:1036A000F6DBE0030CD55B462146179A059800F03F
:1036B0009FF9054404E030205A46179990476D1C45
:1036C0000099481E00900029F5DC08E00298029954
:1036D0005A460078491C0291179990476D1CBAF11F
:1036E0000001AAF1010AF1DC65E1000009280100EE
:1036F0003031323334353637383961626364656668
:103700000000000030313233343536373839414229
:10371000434445460000000000F058F90544761C7B
:10372000307800287FF4ECAD19B02846BDE8F08F62
:10373000620700D4062709F1070222F0070CFCE813
:103740000223E14603F000485FEA080C02D00FF2C2
:10375000702C0DE05FEA045C02D50FF2682C07E0E4
:103760005FEAC47C02D00FF2602C01E0AFF2700C73
:103770004FF0FF3823F00043CDF850C065280CD03F
:1037800006DC452809D046281DD047283DD13DE01C
:10379000662818D067287ED138E00021112F01DB80
:1037A000112000E0781CCDE9000106A90EA8FFF762
:1037B000EDFCDDE90F010E9A03910021009207F163
:1037C000010A04914DE04FF000400097CDE901104F
:1037D00006A90EA8FFF7DAFCDDE90F0203920E9BA3
:1037E00011990022DDF80CA00093049211B9791C04
:1037F00000EB010AB7EB0A0004D4C0F1FF3007F177
:10380000010A0490AAEB0700019044E0012F00DABE
:1038100001270021112F01DD112000E03846CDE9FC
:10382000000106A90EA8FFF7B1FCDDE90F010E9A11
:103830000391002104910092BA4621070CD4039908
:10384000514500DA8A46BAF1010F05DD009AAAF166
:103850000101515C302908D0B84202DA10F1040F9E
:1038600006DA0121CDE9011015E0AAF10101E9E72D
:10387000002805DC049901440491AAEB000102E050
:10388000411C514500DD8A460499401A401C0190B4
:103890004FF000400290200704D40198504501DB0E
:1038A000CDF8048000208DF84F0002980DF14F07ED
:1038B000B0F1004F25D02B200E9002984FF0020857
:1038C00000280CDA404202902D200E9007E00A21D9
:1038D0000298FFF750F93031029007F8011DB8F156
:1038E0000001A8F10108F2DC02980028EFD1791E4E
:1038F0000E980870307800F0200040F0450007F87E
:10390000020D12A8C01B00F107081498007800B13E
:10391000012000EB0A01019801EBE0710598414498
:10392000401A401E0590E00306D45B462146179AD4
:10393000059800F05DF805441498007818B15A46CF
:10394000179990476D1CE00324D55B462146179AD2
:10395000059800F04DF805441CE00498002807DBAA
:10396000DDE90301884203DD0098405C179901E01E
:10397000179930205A469047049805F10105401CDC
:1039800004900198401E019004D12E205A461799A8
:1039900090476D1CBAF10001AAF1010ADDDC05E0D7
:1039A00017F8010B5A46179990476D1CB8F10001A2
:1039B000A8F10108F4DC5B462146179A0598ABE6AE
:1039C0002D0000002B000000200000002DE9F04138
:1039D000044600251E461746880404D405E03946EF
:1039E0002020B0476D1C641EF9D52846BDE8F08143
:1039F0002DE9F041044600251E469046C80301D536
:103A0000302700E02027880404D505E041463846E9
:103A1000B0476D1C641EF9D52846BDE8F0810A68E0
:103A2000531C0B6010707047483A000800000020DB
:103A3000400000006C310008883A00084000002077
:103A4000080800007C31000800A24A0400000000C1
:103A5000000000000102030406070809000000003E
:103A60000102030401020304060708090204060810
:103A70000000000000000000000000000000000046
:083A800000000000000000003E
:04000005080000ED02
:00000001FF
